:020000040800F2
:10000000280A00209D010008712A0008DD1E000852
:100010001D2A000873040008D53300080000000002
:10002000000000000000000000000000DB2A0008C3
:100030000905000800000000D92A00080D2B00085F
:10004000B7010008B7010008B7010008B7010008B0
:10005000B7010008B7010008B7010008B7010008A0
:10006000B7010008B7010008B7010008B701000890
:1000700075040008B701000881040008B7010008F2
:10008000B7010008B7010008B7010008B701000870
:10009000B7010008B7010008B7010008B701000860
:1000A0000D2C0008292C0008B7010008B701000832
:1000B000B7010008B7010008B7010008B701000840
:1000C000B7010008B7010008B7010008B701000830
:1000D000B7010008BD330008B7010008C9330008A4
:1000E000B7010008B7010008B7010008512C00084B
:1000F0006D2C0008B7010008B7010008B70100081F
:10010000B7010008B7010008B7010008B7010008EF
:10011000B7010008B7010008452C0008B701000826
:10012000B7010008B7010008B7010008B7010008CF
:10013000B7010008B7010008B7010008B7010008BF
:10014000B7010008B7010008B7010008B7010008AF
:10015000B7010008B7010008B7010008B70100089F
:10016000B7010008B7010008B7010008B70100088F
:10017000B7010008B7010008B7010008000000003F
:10018000B7010008B7010008DFF80CD000F05EF9F5
:1001900000480047F9330008280A00200648804735
:1001A00006480047FEE7FEE7FEE7FEE7FEE7FEE75C
:1001B000FEE7FEE7FEE7FEE7B92B0008890100082D
:1001C0002DE9F05F0546002092469B46884606468C
:1001D000814640241BE0284641464746224600F01F
:1001E000C7F853465A46C01A914110D311461846D3
:1001F000224600F0AEF82D1A67EB01084F46224662
:100200000120002100F0A5F817EB00094E41201E47
:10021000A4F10104DFDC484631462A464346BDE8E6
:10022000F09F2DE9FE4F81EA030404F0004421F021
:10023000004100944FF0000B23F0004350EA01040A
:100240005ED052EA03045BD0C3F30A54C1F30A55EB
:100250002C44A4F2F3340194A0FB0254C1F3130123
:1002600041F48011C3F3130343F4801301FB0244F0
:1002700000FB034E840A970A44EA815447EA8357F5
:10028000A4FB076802958D0A05FB07854FEA932CAE
:1002900004FB0C542705029D4FEA065847EA16371F
:1002A000B5EB08056EEB070C870E920E47EA811737
:1002B00042EA8312A7FB0201B6EB0B0164EB0004D8
:1002C0002B0D43EA0C335E1844EB1C50DA465146C2
:1002D000E7FB0201C5F313044FEA0B3343EA14535F
:1002E0004FEA0432019C43EA0603A4F10C04029491
:1002F000009CCDE900B400F05AF803B0BDE8F08FDF
:1003000000200146F9E70EB540F233410291002189
:10031000CDE900110A460B4600F049F803B000BDD4
:10032000C1F30A5210B5C1F3130140F2FF3341F497
:1003300080119A4201DA002010BD40F233439A4204
:10034000A2F2334203DC524200F012F810BD90409A
:1003500010BD202A04DB203A00FA02F10020704789
:100360009140C2F1200320FA03F3194390407047F3
:10037000202A04DB203A21FA02F00021704721FAFA
:1003800002F3D040C2F12002914008431946704761
:1003900010B5141E73F1000408DA401C41F100018D
:1003A00092185B411A4301D120F0010010BD2DE9E4
:1003B000F04D92469B4611B1B1FA81F202E0B0FADB
:1003C00080F220329046FFF7C4FF04460F4640EA11
:1003D0000A0041EA0B0153465A46084313D011461E
:1003E00053EA010019D0C8F140025046FFF7C0FFA0
:1003F00005460E46504659464246FFF7AAFF0843B7
:1004000005D0012004E020463946BDE8F08D0020EB
:10041000054346EAE0762C4337430A986305E40A2D
:10042000A0EB08000022FD0A44EA47540A3002D536
:1004300000200146E9E7010510196941DDE9084599
:1004400000196941BDE8F04DA2E70000064C074DD8
:1004500006E0E06840F0010394E807009847103494
:10046000AC42F6D3FFF794FE6C3500088C350008DB
:100470007047FEE7014800F079B80000C805002089
:10048000014800F073B800006805002001681823D7
:10049000CAB2103AB2FBF3F2054B6FF30901032A1B
:1004A0009B5CC36500D9091D816508467047000043
:1004B0004C35000810B5014600208B698A6A4FF060
:1004C000C07453B1B3F5005F15D072B1012A0CD0DE
:1004D000022A0AD0032A09D104E01AB1012A06D05F
:1004E000022A03D1C96AC90100D5012010BDC96A19
:1004F000A142FAD010BD002AF7D0012AF2D0022A78
:10050000F3D0032AF3D010BD7047000010B51821B6
:10051000084801F03FF81821074801F03BF818217E
:10052000064801F037F8BDE810401821044801F0F2
:1005300031B8000014020020500200208C0200207C
:10054000C80200200020704790F83510022903D01F
:100550008021416501207047052180F83510006831
:10056000016821F001010160002070472DE9F84386
:1005700004464FF00009CDF8009063484FF416513F
:10058000A56D0068B0FBF1F72E6894F85C100820A8
:1005900000FA01F131420FD021680A6852070BD5E9
:1005A0000A6822F004020A6094F85C108840A8608F
:1005B000606D40F00100606594F85C104FF0010838
:1005C00008FA01F0304208D021684969090604D5CB
:1005D000A860606D40F00200606594F85C10042033
:1005E0008840304208D021680968890704D5A8608E
:1005F000606D40F00400606594F85C101020884045
:10060000304218D021680968090714D5A86020680D
:100610000168490304D50068000308D5A16C07E010
:100620000168C90503D4016821F008010160216C4B
:1006300009B12046884794F85C1020208840304259
:1006400031D021680968C9062DD5A86094F8350015
:1006500005282068016806D0490347D500680003D3
:100660001DD4616C1CE021F0160101602068416915
:1006700021F080014161206C08B9A06C20B1206894
:10068000016821F00801016094F85C103F20884067
:10069000A86084F8349084F83580216D1FE0E16B08
:1006A00009B120468847606D00282BD0606DC007D7
:1006B00014D0052084F835002068016821F001017C
:1006C00001600098401C0090B84203D82068006880
:1006D000C007F6D184F8349084F83580E16C0029A5
:1006E00010D001B02046BDE8F04308470168C905B5
:1006F000D5D4016821F01001016084F8349084F8A9
:100700003580CCE7BDE8F883100000202DE9F041EA
:10071000044600F055F906465CB1002584F83450D3
:10072000022084F835002068016821F00101016091
:100730000DE00120BDE8F08100F042F9801B0528A2
:1007400005D920206065032084F83500F2E7206891
:100750000068C007F0D12268116820480140D4E940
:1007600001031843D4E9033633431843636918433C
:10077000A3691843E3691843236A18430843616A6D
:10078000042903D1D4E90B131943084310602068EE
:100790004069666A20F0070130460E4301270428AD
:1007A0000CD1A06A0643E06A40B12046FFF782FE02
:1007B00020B14020606584F83570BAE72068466152
:1007C0002046FFF763FE94F85C203F219140816052
:1007D000656584F835700020ACE700003F8010F0BC
:1007E00070B5044600F0ECF80546601C02D00448E1
:1007F0000078044400F0E4F8401BA042FAD370BD36
:10080000040000202DE9F84FDFF87CB100224FF002
:1008100001084FF0030A4FF00F090BF1040E00BF5F
:100820000B6808FA02F42340A3426ED14D68022DF2
:1008300001D0122D0ED1D50800EB850CDCF820502C
:100840005607F70E09FA07F6B5430E69BE402E4368
:10085000CCF82060066855000F790AFA05FC07F00D
:10086000030726EA0C06AF40374307604E68012EA7
:1008700005D0022E03D0112E01D0122E0ED1866883
:10088000CF6826EA0C06AF40374387604668A64328
:100890000C79C4F30014944034434460C6688C68F7
:1008A00026EA0C06AC403443C4604C68E40065D5CD
:1008B000364C256845F480452560246822F0030500
:1008C00004F480440094324C2E19D6F80848950759
:1008D0002F0F09FA07F5AC432E4DA84201D1002590
:1008E00024E02D4DA84201D101251FE02B4DA84247
:1008F00001D102251AE02A4DA84201D1032515E0B5
:10090000284DA84202D1042510E037E0264DA84228
:1009100001D105250AE0254DA84201D1062505E0B3
:10092000234DA84201D1072500E00825BD402543FD
:10093000C6F80858DBF800405D464E689C43F60355
:1009400000D51C432C60DEF8004075464E689C4381
:10095000B60300D51C432C600B4D08352C684E683F
:100960009C43F60200D51C432C60074D0C352C68C7
:100970004E689C43B60200D51C432C60521C102AC2
:10098000FFF44EAFBDE8F88F003C01404438024010
:100990000030014000000240000402400008024014
:1009A000000C0240001002400014024000180240F7
:1009B000001C02400AB1816170470904FBE7000096
:1009C00001488068704700000400002002488168E8
:1009D0000278114481607047040000200B4810B574
:1009E000016841F400710160016841F480610160B7
:1009F000016841F480710160032000F097F8002045
:100A000000F006F800F024F8002010BD003C024081
:100A100070B50D4D04464FF47A712878B1FBF0F0B3
:100A20000A490968B1FBF0F000F01BFB48B9102C33
:100A300007D200222146501E00F058F800206C60BA
:100A400070BD012070BD00000400002010000020D7
:100A50001F4808B5016841F480410160006800F456
:100A6000804000901A48001F016841F080510160E9
:100A7000006800F080500090052000F057F8002238
:100A800011466FF00B0000F031F8002211466FF0B4
:100A90000A0000F02BF8002211466FF0090000F068
:100AA00025F800221146501F00F020F800221146C0
:100AB000101F00F01BF800221146901E00F016F8DF
:100AC0000022BDE808401146501E00F00FB800009B
:100AD0004438024000F01F0201219140400980008B
:100AE00000F1E020C0F8001170470000F0B40E4B98
:100AF0001B680C46C3F30223C3F10705042D00D97C
:100B00000425191D072901D2002300E0DB1E012660
:100B100006FA05F1491E214099409E40761E164076
:100B20003143F0BC01F0A5BF0CED00E0064900F038
:100B3000070208684FF6FF03184040EA0220034A04
:100B400010430860704700000CED00E00000FA055B
:100B50002DE9F0470E46050065D0DFF81481D8F87E
:100B60000000F7B200F00F00B04207D288F8007022
:100B7000D8F8000000F00F00B04254D128683D4C76
:100B8000810712D5400703D5206840F4E05020606B
:100B90002878000703D5206840F460402060206872
:100BA000A96820F0F000084320602878C0072DD005
:100BB000304968680839012812D0022813D0032868
:100BC00011D00968890700292DDA216821F0030175
:100BD00001432160FFF7F4FE814641F2883A0EE0BE
:100BE00009688903EFE709688901ECE7FFF7E8FE88
:100BF000A0EB0901514502D90320BDE8F087206828
:100C0000696800F00C00B0EB810FEFD1D8F800104C
:100C1000404601F00F01B14207D90770006800F0AB
:100C20000F00B04201D00120E7E72878400705D542
:100C30002068E96820F4E050084320602878000725
:100C400006D52068296920F4604040EAC100206090
:100C500000F03CF82168084AC1F30311515CC84018
:100C6000064908600020FFF7D3FE0020C5E700001A
:100C7000003C0240083802405435000810000020B3
:100C80000148006870470000100000200448054932
:100C900000680968044AC1F38221515CC84070476A
:100CA0001000002008380240643500080448054957
:100CB00000680968044AC1F34231515CC84070477A
:100CC000100000200838024064350008154810B5AF
:100CD000006810F00C02144813D04110042A0FD001
:100CE000082A0ED10F4C241F2268236802F03F020D
:100CF0005B0207D52068C0F38810A0FB010106E065
:100D0000084610BD2168C1F38811A1FB0001002332
:100D1000FFF756FA2168C1F30141491C4900B0FBB5
:100D2000F1F010BD083802400024F4002DE9F84F1E
:100D3000050076D02878DFF8F8B2BE4CC00749D05D
:100D4000DBF800105846C1F38101012908D0006882
:100D5000C0F3810002280AD1201D0068400206D598
:100D60002068800336D568680028E2D032E06868E1
:100D7000B0F5803F10D0B0F5A02F206810D020F43F
:100D800080302060206820F4802020606868A0B156
:100D9000FFF716FE06460CE0206840F48030F4E7CA
:100DA00040F480202060F7E7FFF70AFE801B6428EC
:100DB00073D820688003F7D50CE0FFF701FE0646E4
:100DC00005E000BFFFF7FCFD801B6428F0D8206819
:100DD0008003F7D42878DFF8608280074FF000099D
:100DE0003ED5DBF80010584611F00C0F09D0006812
:100DF000C0F3810002280BD18D48001F006840021B
:100E000006D42068800715D5E868012809D111E0CB
:100E1000E868B8B10120C8F80000FFF7D1FD064628
:100E200005E002E1FFF7CCFD801B0228C0D8206856
:100E30008007F7D52068296920F0F80040EAC10052
:100E400020600DE0C8F80090FFF7BAFD064604E008
:100E5000FFF7B6FD801B02281FD820688007F7D453
:100E60002878000722D5724E744869696C3671B1D2
:100E700001210160FFF7A4FD074604E0FFF7A0FD94
:100E8000C01B022809D830688007F7D50EE0C0F8EB
:100E90000090FFF795FD074605E083E0FFF790FD22
:100EA000C01B02287ED830688007F7D42878400716
:100EB00068D5DFF87CA100270AF1380ADAF80000CB
:100EC000C0000BD4DAF8001041F08051CAF80010CD
:100ED000DAF80000012700F080500090584E30688A
:100EE000C00510D4306840F480703060FFF768FDB2
:100EF000009005E0FFF764FD0099401A022851D8E0
:100F00003068C005F6D54A4EA868683601280FD06B
:100F10000528306810D020F001003060306820F0E3
:100F200004003060A868B8B1FFF74AFD00900FE0F8
:100F3000306840F00100F4E740F004003060F7E76B
:100F4000FFF73EFD0099411A41F28830814264D892
:100F500030688007F4D50EE0FFF732FD009007E01F
:100F6000FFF72EFD0099411A41F28830814254D892
:100F700030688007F4D42FB1DAF8001021F08051E6
:100F8000CAF80010A869C0B3DBF80010C1F38101F2
:100F900002294AD00228484607D0C8F86000FFF767
:100FA0000FFD00E039E005463AE04746C8F860002A
:100FB000FFF706FD064604E0FFF702FD801B02284E
:100FC0002BD820688001F7D4D5E907010843A96A26
:100FD0001C4A490802EB01416A6A41EA821108434E
:100FE00095F82C1040EA01611148001F01600120B2
:100FF0003866FFF7E5FC054605E014E0FFF7E0FC86
:10100000401B022809D820688001F7D50BE000BFFB
:10101000FFF7D6FC401B022802D90320BDE8F88F59
:1010200020688001F4D40020F8E70120F6E70000F2
:10103000083802400038024000004742800E474214
:10104000007000400000FFFF4FF0E0210428086915
:1010500003D020F004000861704740F00400FAE774
:10106000704710B5401EB0F1807F01D3012010BD44
:101070004FF0E02460610F21601701F0FAFC0020BE
:10108000A06107202061002010BD10B5FFF7E8FF28
:1010900010BD7047704710B590F83820012A25D050
:1010A000012280F83820CA688C6822F440722243FA
:1010B0004C6822F4806222430C6822F400622243CE
:1010C0000C6922F4805222434C6922F400522243DC
:1010D0008C6922F48042224322F4004102680023FA
:1010E0002143516480F83830002010BD022010BD2B
:1010F00030B590F83820012A20D0012280F838201D
:10110000022380F8393003685C6824F070045C6066
:1011100003685C680D682C435C6003689C6824F07D
:1011200080049C6003689C6849680C439C6080F85C
:101130003920002180F83810084630BD022030BD2B
:1011400010B5040003D094F8390010B107E0012075
:1011500010BD002084F83800204600F00DF8022071
:1011600084F83900211D206801F08EFD012084F8EB
:101170003900002010BD000070B504685A485B4972
:1011800086B0844210D1086840F001000860086809
:10119000012200F00100059000211820FFF7A6FCB5
:1011A0001820FFF797FC5EE0504A5148121F844216
:1011B00012D1106840F0100010601068012200F099
:1011C0001000059011463620FFF790FC5FF03600C6
:1011D000FFF780FC06B070BD4648844210D1086815
:1011E00040F0020008600868012200F0020005904B
:1011F00000212B20FFF77AFC2B20FFF76BFC6CE023
:101200003D4802230325844218D1086840F4803009
:1012100008600868029300F4803005906020CDE9F2
:101220000003CDE9033569463448FFF7EBFA0122A4
:1012300000211820FFF75AFC1820C9E7304E31482A
:10124000B44217D10A6842F400320A600968029376
:1012500001F4003105918115CDE90013CDE9033585
:101260006946FFF7CFFA012200211920FFF73EFC63
:101270001920ADE7244DAC4208D1086840F4802025
:101280000860086800F480200590A3E71F498C429D
:1012900018D1116841F0400111601168029301F00A
:1012A00040010591E100CDE900130921CDE90331A9
:1012B0006946FFF7A7FA012200212B20FFF716FC51
:1012C0002B2085E71248844284D1106840F08000CA
:1012D0001060106800F080000590012200212C2091
:1012E000FFF704FC2C2073E7000001404438024063
:1012F0000010004000040140004001400010024086
:101300000044014000040240004801400018004031
:10131000001C00400168CA6842F00102CA6000680F
:10132000016841F0010101600020704770B504467A
:1013300090F83800012817D0012584F83850022091
:1013400084F839002068826822F0770222F47F4214
:1013500082600868502837D00DDC202859D005DC81
:1013600088B3102841D151E0022070BD302853D0FD
:1013700040283AD13FE060282ED070280BD0B0F53D
:10138000805F03D0B0F5005F2FD110E02068816846
:1013900021F0070115E0CB68D1E90121206801F0B7
:1013A000DEFC2168886840F0770088601DE0CB682B
:1013B000D1E90121206801F0D2FC2068816841F464
:1013C0008041816011E01EE0CA684968206801F030
:1013D0008FFD5021206806E0CA684968206801F046
:1013E000DBFD6021206801F0C4FC84F83950002046
:1013F00084F8380070BDCA684968206801F078FD3B
:1014000040212068EFE700212068ECE710212068E8
:10141000E9E720212068E6E730212068E3E72DE9AD
:10142000F0410D46040003D094F8390018B108E0EB
:101430000120BDE8F081002084F83800204600F04B
:1014400039F8022084F839002068816821F007010A
:101450008160211D206801F017FC22689068916965
:10146000166A2B68AF69034340F20330814341EAB7
:101470000721A868EF6908434FF6FC418843E968F3
:1014800040EA0720014328692F6A000140EA07303B
:10149000084369686D6926F0AA0646EA05152943DE
:1014A00093602268906120680162012084F839000D
:1014B0000020BEE770B500682F49022401252F4A9D
:1014C0002F4E86B0B0F1804F16D02E4B98422CD1C3
:1014D000086840F0020008600868694600F00200F1
:1014E000059030208DE8310003943046CDF810404F
:1014F000FFF788F906B070BD086840F00100086089
:101500000868694600F00100059020208DE8310050
:101510001046CDE90345FFF775F908208DE8310045
:1015200069463046CDE90345E2E7174B984210D1B2
:10153000086840F0040008600868694600F004008C
:1015400005904FF440508DE8310003940F48049407
:10155000CEE70F4B9842CDD1086840F008000860F4
:101560000868694600F00800059003208DE8310006
:10157000039410460494BBE7403802400000024048
:10158000000402400004004000080040000C02403B
:10159000000C004010B50446006891B1042904D045
:1015A0000122002101F0D0FB206801225FF004013C
:1015B00001F0CAFB2068016841F0010101600020D0
:1015C00010BD01220021F3E71249884209D1007EB3
:1015D000012803D002281CD10F4815E00E482038FE
:1015E00012E00E49884205D1007E012811D10A4837
:1015F000603809E00A4988420BD1007E012805D0F5
:10160000022806D10448403000F06ABC024820306D
:10161000FAE770477C03002074000020B803002024
:10162000300400202DE9F041044690F838000D46C2
:1016300001283DD0012684F83860022084F8390062
:10164000AAB3042A46D02068082A55D0D5E9002735
:10165000E968036A23F480530362D0F81CC0036A6C
:101660002CF4407C4CEA07274FF6FF7C27F47047A8
:101670000CEA013139434FF4204723F4204307EAB1
:1016800002321A43C16102622068C16921F44061DB
:10169000C1612068C169AA6841EA0221C0F81C1032
:1016A00084F83960002084F83800BDE8F08101E05A
:1016B0000220FAE7D5E90012EB68206801F02AFC65
:1016C0002068816921F00C01816120688169AA6824
:1016D00011430FE0D5E90012EB68206801F06EFCC1
:1016E0002068816921F44061816120688169AA686C
:1016F00041EA02218161D3E7D5E9002C2F7B016A01
:1017000021F480710162C169036A21F0030141EA99
:101710000C0121F0F00C39074FF420674CEA1161FD
:1017200023F4206307EA02221A43C161026220689F
:10173000C16921F00C01C1612068C169AA68114327
:10174000ACE710B5040003D094F8390010B107E0FD
:10175000012010BD002084F83800204600F00CF86D
:10176000022084F83900211D206801F08DFA012043
:1017700084F83900002010BD704710B50268044697
:1017800031B1042908D0082915D00C2908D116E058
:10179000D06840F0020002E0D06840F00400D06061
:1017A0000122206801F0D0FA2068016841F00101AF
:1017B0000160002010BDD06840F00800EFE7D0685D
:1017C00040F01000EBE770B50446006801694FF087
:1017D0000005C943890715D4C168C943890711D4D5
:1017E000E91E01610120207620688069800720467B
:1017F00002D0FFF7E9FE04E000F0E6F8204600F032
:1018000068F9257620680169C943490717D4C1687A
:10181000C943490713D46FF0040101610220207607
:101820002068806910F4407F204602D0FFF7CCFE8C
:1018300004E000F0C9F8204600F04BF92576206856
:101840000169C943090716D4C168C943090712D4FD
:101850006FF008010161042020762068C0698007CC
:10186000204602D0FFF7B0FE04E000F0ADF82046BD
:1018700000F02FF9257620680169C943C90617D4FD
:10188000C168C943C90613D46FF010010161082073
:1018900020762068C06910F4407F204602D0FFF710
:1018A00093FE04E000F090F8204600F012F925764F
:1018B00020680169C943C90708D1C168C943C9077C
:1018C00004D1891E0161204600F020F920680169D9
:1018D000C943090609D4C168C943090605D46FF094
:1018E000800101612046FFF7D4FB20680169C943EC
:1018F000490609D4C168C943490605D46FF04001BF
:101900000161204600F030F920680169C943890669
:101910000BD4C168C943890607D46FF02001016167
:101920002046BDE87040FFF7B5BB70BD10B51E4B3B
:1019300001680220012286B0994209D14FF4D441B6
:10194000CDE90010CDE902206946184804920CE068
:10195000174C0323A1420CD14FF47071CDE9001054
:10196000CDE90220694604931248FEF74BFF06B00A
:1019700010BD114C0022A14208D149150091CDE9BA
:10198000010269460D48CDE90323EEE70C4B99426D
:10199000EDD140210091CDE901020920CDE90320DC
:1019A00069460848E1E700000000014000100240DD
:1019B00000040140000802400048014000040240C9
:1019C000001C004000000240704770B5044690F8CB
:1019D00038000D4601280DD0012684F83860022019
:1019E00084F8390042B1042A18D0082A2AD00C2AD7
:1019F0004DD139E0022070BD206801F0C3F92068A4
:101A0000816941F0080181612068816921F0040148
:101A10008161206881692A69114311E0206801F021
:101A2000DDF92068816941F4006181612068816984
:101A300021F480618161206881692A6941EA02217B
:101A4000816124E0206801F0FBF92068C16941F060
:101A50000801C1612068C16921F00401C1612068E9
:101A6000C1692A69114311E0206801F019FA206860
:101A7000C16941F40061C1612068C16921F48061DC
:101A8000C1612068C1692A6941EA0221C16184F803
:101A90003960002084F8380070BD10B5040003D010
:101AA00094F8390010B107E0012010BD002084F83F
:101AB0003800204600F00CF8022084F83900211D7F
:101AC000206801F0E1F8012084F83900002010BD01
:101AD0007047704710B504460068012201F034F9E0
:101AE00008492068884202D00749884203D1416CE6
:101AF00041F4004141642068016841F00101016046
:101B0000002010BD0000014000040140034988424C
:101B100003D103480168491C016070470403002099
:101B20000000002090F838300022012B0AD0012359
:101B300080F8383041B1042909D008290AD00C298D
:101B40000DD10AE00220704701684A6B07E0016886
:101B50008A6B04E00168CA6B01E001680A6C00212D
:101B600080F83810104670477047704770B50268AB
:101B700004461068D168536910F00F0F51D003F07C
:101B8000010501F4907635435DD0C20705D0CA0542
:101B900003D5E26B42F00102E263420705D5DA07A2
:101BA00003D0E26B42F00202E263820705D5DA0756
:101BB00003D0E26B42F00402E263020705D5DA07C4
:101BC00003D0E26B42F00802E263E26B002A34D0F9
:101BD000800604D5880602D5204601F020FA206848
:101BE0004069E16BC0F3801001F008010143204619
:101BF00024D001F006FA2068416949061AD54169E6
:101C000021F040014161606BA0B11B490165606B2F
:101C1000FEF79AFC002810D0606B016DBDE87040A3
:101C2000084783060FD58B060DD52046BDE87040CA
:101C300001F0F5B92046FFF798FF70BDFFF795FF5B
:101C40000020E06370BD030606D50B0604D52046D0
:101C5000BDE8704001F080BB4006F3D54806F1D5E1
:101C6000D168204621F04001D160202184F839104C
:101C700000F0E9F870BD0000F32F000870B5040013
:101C800004D094F83900002510B106E0012070BDA1
:101C900084F83850204600F023F8242084F83900D6
:101CA0002068C16821F40051C160204601F0FEF9AE
:101CB0002068016921F4904101612068416921F0A7
:101CC0002A0141612068C16841F40051C160E563A7
:101CD000202084F8390084F83A00002070BD00000C
:101CE0002DE9F04106464A4FD0F800C0494802218C
:101CF00001220323002486B04FF44065BC4514D173
:101D0000046844F4002404600068009500F4002096
:101D10000590082001AC049084E80E0069463E4816
:101D2000FEF770FD06B0BDE8F081DFF8F080072710
:101D3000C44518D13748001D046844F010040460FD
:101D4000006800F0100005904FF4C0608DE88F002F
:101D500069463348FEF756FD002201212520FEF793
:101D6000C5FE252050E0DFF8BC80C445DAD1D0F8AC
:101D700000C04CF4802CC0F800C00068009500F44E
:101D800080200DF10408059088E88E0069462648F9
:101D9000FEF738FD264D25484FF00067E5E80207BD
:101DA00040204FF48068A5E81101214845F8144906
:101DB000AC61EC612C626C62FEF7A8FC18B1C72123
:101DC0001CA001F008FB3563AE63194D1748603560
:101DD00030382860C5E90174C5E9034880156C6195
:101DE000C5E906402C6228466C62FEF78FFC18B1EC
:101DF000D92110A001F0EFFA7563002211462720C7
:101E0000AE63FEF773FE2720FEF764FE8AE700004C
:101E1000004C0040403802400008024000100140E1
:101E200000000240004800400004024058600240A8
:101E3000680500202E2E2F5372632F757361727404
:101E40002E6300007047704770B5234C0122114685
:101E50002046FEF7AFFD4FF4FA75284600F0F2F881
:101E6000002201212046FEF7A5FD01220421204683
:101E7000FEF7A0FD284600F0E5F8002204212046E8
:101E8000FEF798FD012208212046FEF793FD284623
:101E900000F0D8F8002208212046FEF78BFD012231
:101EA00010212046FEF786FD284600F0CBF80022E0
:101EB00010212046FEF77EFD012220212046FEF75C
:101EC00079FD284600F0BEF82046BDE870400022AB
:101ED0002021FEF76FBD0000000C0240FEE700006D
:101EE0002DE9F05F05460078072810D2DFE800F002
:101EF0000F040F06090B0D004D4C00E04D4C002661
:101F000005E04C4C02E04C4CF9E74B4C0426688849
:101F1000000655D468884FF6F57740064FF65F788F
:101F20004FF2FF5A4DF6FF7B4FD54FF00009A5F851
:101F3000029031462046FFF7F5FDA98888423146D8
:101F4000204607D2FFF7EEFDA988401A41F63F71FF
:101F5000084403E0FFF7E6FDA988401AE880A87F5F
:101F60000A2801D185F81E90E888FEF7CCF99FED8C
:101F7000331B53EC112BFEF754F9FEF7D1F9014650
:101F8000A87F05EB4002401CA8775181284600F04D
:101F900091F8288146B1042E0AD02068082E016AE3
:101FA00010D001EA0B0107E02068016A394003E024
:101FB0002068016A01EA080101622068016A016281
:101FC000BDE8F09F01EA0A01F6E7688840F04000AA
:101FD000688031462046FFF7A5FDA8806EB1042E2B
:101FE00014D02068082E016A1AD001EA0B010162A0
:101FF0002068016A41F40051E1E72068016A394034
:1020000001622068016A41F00201D8E72068016A94
:1020100001EA080101622068016A41F02001CEE76F
:1020200001EA0A0101622068016A41F40071C6E711
:10203000B80300207C030020300400203333333306
:102040003333EB3F01B50098411E0091FBD208BD30
:1020500070B500210D4600EB41124C1C14709580A8
:10206000D58055809577002302EB43014D815B1CA1
:10207000DBB20A2BF8D3E1B20629ECD300210A48DF
:10208000FFF77BFB04210848FFF777FB0021074897
:10209000FFF773FB00210648FFF76FFBBDE87040B8
:1020A00004210348FFF769BB7C030020B80300202C
:1020B0003004002070B500214A1C1446D2B200EB57
:1020C00041010BE04D8900EB42035E89B54203D923
:1020D0005D894E895E814D81521CD2B20A2AF1D3AC
:1020E000E1B20A29E8D3018A428A1144828AC08A6D
:1020F00010440844800870BD0D4808B5016841F4DB
:10210000001101600068002200F4001000901146E8
:102110000C20FEF7EBFC0C20FEF7DCFC0022114645
:102120000E20FEF7E3FCBDE808400E20FEF7D2BC0F
:1021300030380240F0B52E4887B00025016841F0E4
:1021400010010160016801F010010591016841F082
:1021500004010160016801F004010591016841F08A
:1021600080010160016801F080010591016841F082
:1021700001010160016801F001010591016841F070
:1021800002010160016801F002010591016841F05E
:10219000080101600068012200F00800154E540398
:1021A000059021463046FEF705FC134F00223D21E5
:1021B0003846FEF7FFFB009401246946304601943F
:1021C000CDE90245FEF71EFB0C20CDE900050225F6
:1021D00069460A480295FEF715FB3D20CDE900044B
:1021E00069463846CDE90245FEF70CFB07B0F0BD65
:1021F0003038024000080240000C0240000002405B
:102200001FB5184816490024016040F24731C0E963
:10221000011441F63F71C0E90314FEF791FF20B1AC
:102220004FF4D67110A001F0D6F80E48FFF789FAE6
:1022300020B140F2B1110CA001F0CDF80120CDE9A0
:10224000004002940022694606480394FFF7EAF929
:10225000002804D04FF4DD7103A001F0BCF81FBDCD
:1022600000440140B80300202E2E2F5372632F74B8
:10227000696D2E630000000010B51A4888B0184937
:10228000016040F28F610024C0E9011440F2CF7177
:10229000C0E90314FEF754FF20B14FF4E57112A01A
:1022A00001F099F80F48FFF7F8FB20B140F2CF1189
:1022B0000DA001F090F86020CDE900040294002206
:1022C000694608480494FFF780FB20B14FF4EC7195
:1022D00005A001F080F80348FFF728FB08B010BD07
:1022E00000480140F40300202E2E2F5372632F74F8
:1022F000696D2E630000000010B5254888B02349A1
:10230000016040F2A3110024C0E9011441F63F71BD
:10231000C0E90314FEF714FF20B140F2EB111DA039
:1023200001F059F84FF48050049004A91848FEF7C2
:10233000FDFF20B140F2F11116A001F04CF8144855
:10234000FFF7FFF920B14FF4FB7112A001F043F841
:102350000120CDE900400294002269460C48039414
:10236000FFF760F920B140F2FF110AA001F033F845
:10237000042269460648FFF755F9002804D04FF4B7
:10238000017104A001F027F808B010BD001800404A
:10239000300400202E2E2F5372632F74696D2E632C
:1023A0000000000010B51A4888B01849016040F2DA
:1023B00047310024C0E9011440F2CF71C0E9031491
:1023C000FEF7BEFE20B14FF4057112A001F003F834
:1023D0000F48FFF762FB20B140F219210DA000F079
:1023E000FAFF6020CDE90004029400226946084803
:1023F0000494FFF7EAFA20B140F2222105A000F090
:10240000EAFF0348FFF792FA08B010BD001C004035
:102410006C0400202E2E2F5372632F74696D2E636F
:102420000000000010B53D4894B03B490024C0E9CD
:10243000001442F2CF01C0E9024104614461FEF799
:102440007FFE18B14E2136A000F0C5FF4FF480503A
:102450000E900EA93148FEF769FF18B1542130A043
:1024600000F0B9FF2D48FFF718FB18B159212CA037
:1024700000F0B1FF129412A928481394FEF738FE19
:1024800018B1602126A000F0A6FF6020CDE900046D
:102490000294039404940594002269461F4806940C
:1024A000FFF793FA18B16C211DA000F094FF0422ED
:1024B00069461A48FFF789FA18B1712118A000F08F
:1024C0008AFF082269461548FFF77FFA18B176217E
:1024D00013A000F080FF0C2269461048FFF775FA40
:1024E00018B17B210EA000F076FF079408940994A0
:1024F0004FF400500A94CDE90B4007A907480D940A
:10250000FEF7C9FD18B1872105A000F064FF03485C
:10251000FFF70CFA14B010BD00000140D8010020F4
:102520002E2E2F5372632F74696D2E6300000000EE
:1025300010B517488CB04FF080410024C0E900145A
:102540004FF6FF71C0E9024104610320CDE90004A8
:102550000120CDE9020406210491CDE90540CDE931
:10256000074169460A48FEF75AFF18B1A32109A09E
:1025700000F031FF099409A905480A94FEF7B8FD57
:10258000002803D0AA2103A000F025FF0CB010BD45
:10259000140200202E2E2F5372632F74696D2E6348
:1025A0000000000010B518488CB016490024C0E99E
:1025B00000144FF6FF71C0E9024104610320CDE928
:1025C00000040120CDE9020406210491CDE9054073
:1025D000CDE9074169460C48FEF721FF18B1C42137
:1025E0000AA000F0F8FE099409A907480A94FEF72A
:1025F0007FFD002803D0CB2104A000F0ECFE0CB03E
:1026000010BD000000040040500200202E2E2F5369
:1026100072632F74696D2E630000000010B51848B6
:102620008CB016490024C0E900144FF6FF71C0E9D0
:10263000024104610320CDE900040120CDE9020438
:1026400006210491CDE90540CDE9074169460C48D2
:10265000FEF7E5FE18B1E5210AA000F0BCFE0994E2
:1026600009A907480A94FEF743FD002803D0EC218E
:1026700004A000F0B0FE0CB010BD00000008004047
:102680008C0200202E2E2F5372632F74696D2E63DF
:102690000000000010B519488CB017490024C0E9AB
:1026A00000144FF6FF71C0E9024104610320CDE937
:1026B00000040120CDE9020406210491CDE9054082
:1026C000CDE9074169460D48FEF7A9FE20B14FF458
:1026D00083710BA000F07FFE099409A907480A94B2
:1026E000FEF706FD002804D040F20D1104A000F012
:1026F00072FE0CB010BD0000000C0040C8020020AB
:102700002E2E2F5372632F74696D2E63000000000C
:102710001CB511480F49002401606321C0E9011470
:1027200040F24731C160FEF70BFD20B14FF48E71CE
:102730000AA000F050FE0094694607480194FEF795
:10274000D7FC002804D040F2231104A000F043FE7F
:102750001CBD000000100040040300202E2E2F534B
:1027600072632F74696D2E630000000010B542483B
:1027700094B040490024C0E9001442F2CF01C0E9FE
:10278000024104614461FEF7DBFC20B140F23711E5
:102790003AA000F020FE4FF480500E900EA936486B
:1027A000FEF7C4FD20B140F23D1134A000F013FE4D
:1027B0003148FFF772F920B14FF4A1712FA000F05A
:1027C0000AFE129412A92C481394FEF791FC20B132
:1027D00040F2491129A000F0FEFD6020CDE900047F
:1027E00002940394049405940022694622480694B6
:1027F000FFF7EBF820B140F2551120A000F0EBFDFF
:10280000042269461C48FFF7E0F820B14FF4AD718F
:102810001AA000F0E0FD082269461748FFF7D5F836
:1028200020B140F25F1115A000F0D5FD0C226946E1
:102830001148FFF7CAF820B14FF4B2710FA000F0B1
:10284000CAFD0794089409944FF400500A94CDE906
:102850000B4007A908480D94FEF71DFC20B14FF46A
:10286000B87106A000F0B7FD0348FFF75FF814B099
:1028700010BD000000040140400300202E2E2F5305
:1028800072632F74696D2E630000000010B5254837
:1028900088B02349016040F247310024C0E90114A7
:1028A00041F63F71C0E90314FEF74AFC20B140F243
:1028B00083111DA000F08FFD4FF48050049004A9F7
:1028C0001848FEF733FD20B140F2891116A000F040
:1028D00082FD1448FEF735FF20B14FF4C77112A0F6
:1028E00000F079FD0120CDE9004002940022694604
:1028F0000C480394FEF796FE20B140F297110AA00F
:1029000000F069FD042269460648FEF78BFE0028A8
:1029100004D04FF4CE7104A000F05DFD08B010BDEE
:10292000004001407C0300202E2E2F5372632F7431
:10293000696D2E63000000000D4810B50B49016061
:102940004FF4E1314160002181600C22C160C0E997
:1029500004128161C161FFF791F9002805D0BDE83B
:102960001040462103A000F036BD10BD004C0040D1
:10297000A80400202E2E2F5372632F75736172747A
:102980002E6300000D4810B50B4901604FF4E13192
:102990004160002181600C22C160C0E904128161A4
:1029A000C161FFF76BF9002805D0BDE8104059213F
:1029B00003A000F010BD10BD00100140E80400208D
:1029C0002E2E2F5372632F75736172742E63000065
:1029D0000D4810B50B4901604FF4E1314160002111
:1029E00081600C22C160C0E904128161C161FFF7FE
:1029F00045F9002805D0BDE810406C2103A000F087
:102A0000EABC10BD00480040280500202E2E2F53A0
:102A100072632F75736172742E630000FEE700000D
:102A200010B500211048FFF755F804210E48FFF7B4
:102A300051F808210C48FFF74DF80C210A48FFF720
:102A400049F800210948FFF745F804210748FFF736
:102A500041F808210548FFF73DF8BDE810400C217A
:102A60000248FFF737B80000D801002040030020DB
:102A700070470907090E002806DA00F00F0000F180
:102A8000E02080F8141D704700F1E02080F8001469
:102A9000704700000021016080ED020AC0ED030ACA
:102AA0009FED040A80ED041A80ED050A80ED060A08
:102AB00070470000000000000020064A014600BFE9
:102AC00002F8101002EB40035970401C0F28F7DD8C
:102AD00070470000B80100207047704710B5002112
:102AE0000648FEF7F7FF00210548FEF7F3FF05490A
:102AF000642008600449C820086010BDF403002069
:102B00006C04002034480140341C004010B5FDF72F
:102B10005DFFBDE81040FEF7B8BA000030B52448AC
:102B200093B00025016841F080510160006800F019
:102B3000805011901F48016841F480410160006895
:102B4000022400F4804011900120009000040190C4
:102B50008001CDE9064008AA0420A82182E81300DC
:102B60000B906846FEF7E2F800B1FEE70CA90F20D3
:102B700081E831004FF4A0500F904FF48050109036
:102B800005210CA8FDF7E4FF00B1FEE7FEF778F899
:102B90004FF47A71B0FBF1F0FEF763FA0420FEF710
:102BA00053FA00221146501EFDF7A0FF13B030BDAE
:102BB00040380240007000401048016841F4700144
:102BC00001600F48016841F0010101600C4A0021D9
:102BD0000832116002680B4B1A400260031D0A4A5A
:102BE0001A60026822F48022026005480C300160FD
:102BF00002495806803908607047000088ED00E0FF
:102C000000380240FFFFF6FE1030002410B50448E3
:102C1000FEF7D9FDBDE810400248FEF7D4BD000024
:102C2000D80100207C03002010B50448FEF7CBFD3E
:102C3000BDE810400248FEF7C6BD0000D8010020E4
:102C4000B80300200148FEF7BEBD000004030020C9
:102C500010B50448FEF7B7FDBDE810400248FEF786
:102C6000B2BD0000400300203004002010B504482D
:102C7000FEF7A9FDBDE810400248FEF7A4BD000024
:102C8000400300206C040020F0B50268234B244D63
:102C9000244E254F254C4FF0804C984209D060457A
:102CA00007D0A84205D0B04203D0B84201D0A0421C
:102CB00004D122F0700E4A6842EA0E0298421BD0FC
:102CC000604519D0A84217D0B04215D0B84213D0F1
:102CD000A04211D0164DA8420ED0164DA8420BD0DE
:102CE000154DA84208D0154DA84205D0144DA84254
:102CF00002D0144DA84203D122F44075CA682A4379
:102D000002608A68C2620A688262984201D0A04268
:102D100001D10969016301214161F0BD0000014059
:102D20000004004000080040000C00400004014086
:102D300000400140004401400048014000180040AC
:102D4000001C00400020004010B50123046A8B40A5
:102D50009C430462036A8A401343036210BD10B5AA
:102D6000846842EA032224F47F440A4322438260B7
:102D700010BD826822F070020A4342F007018160B0
:102D80007047000030B5026A22F001020262026A56
:102D9000436884690D6824F07304254322F002041B
:102DA0008A6822430B4CA04202D00B4CA0420BD1AC
:102DB00022F00804CA6823F4407322434C6922F0CD
:102DC00004021C438B692343436085614968416366
:102DD000026230BD000001400004014030B5026ACB
:102DE00022F010020262026A436884690D6824F4CA
:102DF000E64444EA05248D6822F0200242EA0512E6
:102E00000D4DA84202D00D4DA8420ED1CD6822F042
:102E1000800242EA05124D6923F4406343EA8503C8
:102E20008D6922F0400243EA85034360846149686A
:102E30008163026230BD00000000014000040140D7
:102E400030B5026A22F480720262036A4268C46981
:102E500023F4007324F073050C682C438D6843EA57
:102E600005230D4DA84202D00C4DA8420ED1CD68CD
:102E700023F4006343EA05234D6922F4405242EAF9
:102E800005128D6923F4806342EA05124260C46131
:102E90004968C163036230BD000001400004014085
:102EA00030B5026A22F480520262046A4268C36941
:102EB0000D6823F4E64343EA05238D6824F40054A7
:102EC00044EA0534084DA84202D0084DA84204D176
:102ED0004D6922F4804242EA85124260C36149682A
:102EE0000164046230BD00000000014000040140A4
:102EF00010B5036A046A24F001040462846924F0B2
:102F0000F00444EA021423F00A020A4384610262D4
:102F100010BD000070B5046A24F0010404628469E5
:102F2000056A164EB04214D0B0F1804F11D0144E45
:102F3000B0420ED0134EB0420BD0134EB04208D068
:102F4000124EB04205D0124EB04202D0114EB042E5
:102F500003D124F00304144303E024F0030242F0FD
:102F600001041A0724F0F00444EA126225F00A036F
:102F700001F00A0119438261016270BD0000014045
:102F80000004004000080040000C00400004014024
:102F9000004001400018004010B5036A23F0100300
:102FA00003628369046A23F4704343EA023224F023
:102FB000A00343EA01118261016210BD30B5046AC9
:102FC00024F0100404628469056A24F4407444EA1D
:102FD000022222F470444FF6FF7202EA03322243C7
:102FE000A02425F0A00304EA0111194382610162C3
:102FF00030BD10B5806B0021C185C184FEF7B5FDE1
:1030000010BD0168CA6822F49072CA6001684A69FA
:1030100022F001024A61202180F83A10704710B571
:1030200090F83A10222901D0022010BD8168B1F534
:10303000805F11D00169002901681FD0496801F043
:103040007F03816A4A1C82620B70C18D491E09048C
:10305000090CC18518D026E00269816A002A02683D
:10306000526805D0D2B20A80816A491C8162ECE7BD
:10307000C2F308020A80816A891CF7E74A68816AFC
:103080004B1C83620A70E0E70168CA6822F4907200
:10309000CA6001684A6922F001024A61202180F871
:1030A0003A10FEF7CFFE002010BD00002DE9F041E0
:1030B00004460068016921F44052E168114301614E
:1030C0002168C86849F20C6290432369A268E569E7
:1030D0001A4363692B431A430243CA602168486953
:1030E00020F44072A06910434861E1696425B1F59C
:1030F000004F9748974A21684FF032083FD09142DD
:1031000001D081427CD1FDF7D1FD00EBC00101EB84
:10311000001061688900B0FBF1F6FDF7C7FD00EB18
:10312000C00101EB001061688900B0FBF1F0B0FB59
:10313000F5F06FF01801484306EB800108EB011031
:10314000B0FBF5F000F0F006FDF7B0FD00EBC001BC
:1031500001EB001061688900B0FBF1F0B0FBF5F005
:1031600006EB0016FDF7A2FD00EBC00101EB00101D
:1031700061688900B0FBF1F7FDF798FDD2E091425C
:1031800001D081423DD1FDF791FD00EBC00101EB83
:10319000001061684900B0FBF1F0B0FBF5F00601EA
:1031A000FDF784FD00EBC00101EB001061684900F0
:1031B000B0FBF1F7FDF77AFD00EBC00101EB001069
:1031C00061684900B0FBF1F0B0FBF5F06FF0180159
:1031D000484307EB800108EBC100B0FBF5F000F0BD
:1031E000F80006EB4006FDF761FD00EBC00101EBC6
:1031F000001061684900B0FBF1F7FDF757FD3CE0B6
:1032000055E0FDF743FD00EBC00101EB00106168E4
:103210004900B0FBF1F0B0FBF5F00601FDF736FD1B
:1032200000EBC00101EB001061684900B0FBF1F751
:10323000FDF72CFD00EBC00101EB001061684900B7
:10324000B0FBF1F0B0FBF5F06FF01801484307EB6D
:10325000800108EBC100B0FBF5F000F0F80006EBD0
:103260004006FDF713FD00EBC00101EB00106168A3
:103270004900B0FBF1F7FDF709FD00EBC00101EBE0
:10328000001061684900B0FBF1F0B0FBF5F06FF0A1
:103290001801484307EB800108EBC100B0FBF5F0D3
:1032A00000F00700216830448860BDE8F081FDF738
:1032B000EDFC00EBC00101EB001061688900B0FB80
:1032C000F1F6FDF7E3FC00EBC00101EB00106168D3
:1032D0008900B0FBF1F0B0FBF5F06FF01801484346
:1032E00006EB800108EB0110B0FBF5F000F0F006F2
:1032F000FDF7CCFC00EBC00101EB00106168890018
:10330000B0FBF1F0B0FBF5F006EB0016FDF7BEFCEC
:1033100000EBC00101EB001061688900B0FBF1F720
:10332000FDF7B4FC00EBC00101EB001061688900FF
:10333000B0FBF1F0B0FBF5F06FF01801484307EB7C
:10334000800108EB0110B0FBF5F000F00F00A9E7D9
:10335000001401400010014090F83910212901D0DB
:10336000022070478168B1F5805F016A0BD04A1C6A
:103370000262026809785160C18C491E0904090C77
:10338000C1840ED017E009880268C1F308015160BA
:1033900001690029016A02D0491C0162ECE7891C1D
:1033A000FBE70168CA6822F08002CA600068C16851
:1033B00041F04001C1600020704700000148FEF765
:1033C000D5BB0000E80400200148FEF7CFBB000099
:1033D00028050020FEE7FEE702E008C8121F08C12A
:1033E000002AFAD170477047002001E001C1121F86
:1033F000002AFBD1704700002DED028BFDF7EEFA9D
:10340000FFF78CFBFEF796FEFEF776FEFFF70AF855
:10341000FFF7ACF9FFF78CF8FFF7C4F8FFF7FEF8F9
:10342000FFF738F9FFF774F9FFF730FAFEF7E8FE17
:10343000FEF762FFFFF7A6FAFFF7CAFAFEF71CFFD6
:10344000FEF7B0FFFFF778FAFDF712F8FFF7E8FA9A
:10345000FDF75CF89FED2D8A9FED2B1AB0EE0C0A5C
:10346000F0EE480A2A48FFF715FBDFED2A8AF0EE56
:10347000480AB0EE0C0AB0EE681A2748FFF70AFBBC
:10348000B0EE681AF0EE480AB0EE0C0A2348FFF7D7
:1034900001FBB0EE681AF0EE480AB0EE0C0A2048C4
:1034A000FFF7F8FA9FED208A9FED1E1A9FED1F0A85
:1034B000F0EE480A1E48FFF7EDFA9FED1E1AF0EEF7
:1034C000480A9FED1D0A1D48FFF7E4FAFFF706FBC7
:1034D000FFF7F2FA1A48FEF7BBFD0024FEF7B4FC32
:1034E0001420FDF77DF9641C142CF7DB1548FDF75B
:1034F00011FF154CFDF726F82060FEF7A5FC05200E
:10350000FDF76EF9F6E700000AD7A33CCDCCAC403E
:10351000100100200AD7233C2C0100204801002084
:1035200064010020D7A3703E000000005D6D053FE0
:103530009C010020EC51383EA245A63F80010020AE
:103540001400002004030020F400002000061016E0
:103550000006101600000000000000000102030435
:103560000607080900000000010203048C3500086A
:103570000000002014000000D8330008A035000827
:1035800014000020140A0000E833000800000000C6
:103590000100000010000000000000000024F40002
:040000050800018965
:00000001FF
